:020000040800F2
:1000000000000820A1350508F1350508F13505087F
:10001000F1350508F1350508F13505080000000047
:10002000000000000000000000000000F13505089D
:10003000F135050800000000F1350508F135050827
:10004000F1350508F1350508F135050841A5040825
:10005000F1350508F1350508F1350508F1350508D4
:10006000F1350508F1350508F1350508F1350508C4
:10007000F1350508F1350508F1350508F1350508B4
:10008000F1350508F1350508F1350508F1350508A4
:10009000F1350508F1350508F1350508F135050894
:1000A000F1350508F1350508F1350508F135050884
:1000B000F1350508F1350508F1350508F135050874
:1000C000F1350508F1350508F1350508F135050864
:1000D000F1350508F1350508F1350508F135050854
:1000E000F135050819A50408F1350508F1350508AD
:1000F000F1350508F1350508F1350508F135050834
:10010000F1350508F1350508F1350508F135050823
:10011000F1350508F135050879A60408F13505081B
:10012000F1350508F1350508F1350508F135050803
:10013000F1350508F1350508F1350508F1350508F3
:10014000F1350508F1350508F1350508F1350508E3
:10015000F1350508F1350508F1350508F1350508D3
:10016000F1350508F1350508F1350508F1350508C3
:10017000F1350508F1350508F135050800000000E6
:10018000F1350508F1350508F1350508F1350508A3
:10019000F1350508F1350508F1350508F135050893
:1001A000F1350508F1350508F1350508F135050883
:1001B000F1350508F1350508F1350508F135050873
:1001C000F1350508F135050800000000F135050896
:1001D000F1350508F1350508F1350508F135050853
:1001E000F1350508F1350508F1350508F135050843
:0801F000F1350508F1350508A1
:1001F800B85B05080000002044020020B85B050831
:1002080000000010000000104802002088050020AF
:1002180000000010000000100DC0A0E1F8DF2DE97B
:1002280004B04CE228D04BE2F06F9DE81EFF2FE1AE
:100238000DC0A0E1F8DF2DE904B04CE228D04BE274
:10024800F06F9DE81EFF2FE1980200085802000891
:1002580010402DE928409FE50030D4E5000053E325
:100268000500001A1C309FE5000053E318009F1595
:1002780000F020130130A0E30030C4E51040BDE8D1
:100288001EFF2FE14802002000000000AC5B0508BB
:100298003C309FE5000053E310402DE934109F15D2
:1002A80034009F1500F0201330009FE5003090E5E2
:1002B800000053E30100001A1040BDE81EFF2FE1C3
:1002C8001C309FE5000053E3FAFFFF0A1040BDE829
:1002D80013FF2FE1000000004C020020AC5B050872
:1002E80044020020000000001600B0E3131E8FE255
:1002F800563412EF28019FE5041090E5000051E301
:100308000100000A38219FE5001082E5001090E501
:10031800000051E30100001A20119FE5001080E55C
:10032800081090E50C2090E5000051E30000000A59
:1003380001D0A0E1000052E30000000A01AC82E213
:100348000010B0E301B0A0E10170A0E1D4009FE586
:10035800D4209FE5002052E0AC4D01EBE44D01EBC9
:100368001500B0E3CC108FE2563412EFC4109FE5AD
:100378000000B0E301002DE90130D1E4000053E3AF
:100388001100000A200053E3FAFFFF0A220053E39A
:10039800270053130320A0012020A01301104112AD
:1003A80002002DE9010090E20130D1E4000053E39E
:1003B8000500000A030052E1FAFFFF1A0020B0E32B
:1003C800013051E20020C3E5EAFFFFEA0D10A0E189
:1003D80000218DE00D30A0E1030052E104401285B8
:1003E800005093850450228504408384F9FFFF8AD6
:1003F80007D0CDE30040B0E10150B0E12C009FE50B
:10040800000050E30100000A24009FE500F020E30B
:100418005C4D01EB0400B0E10510B0E1A04C01FA1D
:10042800484D01EB04000020480200208805002008
:10043800000000000000000014000020FF00000081
:10044800880500204002002080B400AF4FF0807380
:100458001846BD465DF8047B704700BF80B58AB07A
:1004680000AF0346FB71FB79002B0CD11E4A1E4BD3
:100478001B6B43F0020313631B4B1B6B03F002035C
:100488003B613B690BE0184A174B1B6B43F00203B7
:100498001363154B1B6B03F00203FB60FB68FB79CE
:1004A800124A32F813307B610123BB610023FB61E0
:1004B80003233B62FB790E4A52F8233007F11402FA
:1004C8001146184611F02AFFFB79094A52F8230011
:1004D800FB79064A32F813300022194612F006FC5E
:1004E80000BF2837BD4680BD00380240505005087F
:1004F8001401002080B588B000AF0346FB71FB797A
:100508000E4A52F82300FB790D4A32F813300022C4
:10051800194612F0EBFBFB79094A32F81330FB60FD
:10052800FB79064A52F82330FA681146184612F049
:100538007FFA00BF2037BD4680BD00BF14010020F0
:100548005050050880B582B000AF0346FB71FB79B7
:10055800074A52F82300FB79064A32F81330012281
:10056800194612F0C3FB00BF0837BD4680BD00BF67
:10057800140100205050050880B582B000AF034632
:10058800FB71FB79074A52F82300FB79064A32F8D7
:1005980013300022194612F0A9FB00BF0837BD46E8
:1005A80080BD00BF140100205050050880B582B0FE
:1005B80000AF0346FB71FB79064A52F82300FB792A
:1005C800054A32F81330194612F0BCFB00BF083751
:1005D800BD4680BD140100205050050880B588B084
:1005E80000AF03460A46FB711346BB71224A224BF1
:1005F8001B6B43F0040313631F4B1B6B03F00403D3
:10060800BB60BB68BB79002B12D14FF40053FB6071
:1006180000233B6102237B610323BB61FB79174AFB
:1006280052F8233007F10C021146184611F076FEF5
:10063800BB79012B1CD14FF40053FB6000237B6175
:100648000F4B3B61FB790D4A52F8233007F10C023E
:100658001146184611F062FE28235BB200220F21D2
:10066800184605F0DFFD28235BB2184605F006FEA4
:1006780000BF2037BD4680BD003802402001002061
:100688000000211080B588B000AF0346FB714FF41D
:100698000053FB6028235BB2184605F007FEFB7980
:1006A800054A52F82330FA681146184612F0C0F984
:1006B80000BF2037BD4680BD2001002080B582B034
:1006C80000AF0346FB71FB79064A52F823304FF41A
:1006D80000521146184612F0E9FA03461846083740
:1006E800BD4680BD2001002080B58AB000AF78608B
:1006F800264A264B1B6B43F001031363234B1B6BEA
:1007080003F001033B613B69204A204B1B6B43F01C
:10071800010313631D4B1B6B03F00103FB60FB68B4
:1007280020237B610223BB610123FB6103233B621E
:1007380005237B6207F114031946154811F0EEFDF5
:1007480080237B6105237B620223FB6107F114038D
:1007580019460F4811F0E2FD40237B610223FB613B
:1007680007F1140319460A4811F0D8FD074A074B48
:100778005B6C43F480535364044B5B6C03F4805309
:10078800BB60BB6800BF2837BD4680BD003802404B
:100798000000024080B500AF1A483BF089FF0346CD
:1007A800002B2CD1174B184A1A60164B1022DA610D
:1007B800144B00229A60134B01225A61114B0222FA
:1007C8001A61104B00229A620E4B0722DA620D4B17
:1007D8004FF4E062DA600B4B00221A62094B4FF4C7
:1007E80000729A61074B00225A62064B4FF48272DC
:1007F8005A600448FFF778FF024839F095FD00BFBA
:1008080080BD00BF640200200030014080B588B080
:1008180002AFF860B9601346FB800023FB750A4BF2
:100828001B68FA8800931346BA68F96807483AF0D3
:10083800EDFA0346FB75FB7D002B01D000F028F88C
:1008480000BF1837BD4680BD240100206402002087
:1008580080B586B002AF0346FB710023FB730A4BD9
:100868001B6807F10E02F91D0093012307483AF0AF
:10087800CDFA0346FB73FB7B002B01D000F008F890
:1008880000BF1037BD4680BD24010020640200204F
:1008980080B500AF034839F039FFFFF77BFF00BF91
:1008A80080BD00BF6402002080B588B000AF2A4A2E
:1008B800294B1B6B43F020031363274B1B6B03F07F
:1008C80020037B607B684FF48043BB600123FB609F
:1008D80001233B6102237B6107F1080319461F4886
:1008E80011F01CFD1C4A1C4B1B6B43F008031363DF
:1008F800194B1B6B03F008033B603B684FF48043C4
:10090800BB600123FB6000233B6102237B6107F18D
:1009180008031946124811F001FD01224FF48041E5
:100928000F4812F0E3F9FFF735FF01224FF4804139
:100938000A4812F0DBF90023FB7705E0FF2000F0FE
:100948003FF8FB7F0133FB77FB7F092BF6D900BF0C
:100958002037BD4680BD00BF003802400014024069
:10096800000C024080B582B000AF0346FB71FB79F2
:10097800012B06D101224FF48041074812F0B6F945
:1009880005E000224FF48041034812F0AFF900BFA0
:100998000837BD4680BD00BF0014024080B584B052
:1009A80000AFF860B9601346FB80FB881A46B96847
:1009B800F868FFF72BFF00BF1037BD4680BD00BFAA
:1009C80080B584B000AF0346FB7107F10F01FB1D32
:1009D80001221846FFF71AFFFB7B18461037BD4661
:1009E80080BD00BF80B588B000AF1E4A1D4B1B6B91
:1009F80043F0080313631B4B1B6B03F00803BB6036
:100A0800BB68184A174B1B6B43F020031363154B45
:100A18001B6B03F020037B607B684FF48043FB6013
:100A280001233B6100237B610223BB6107F10C03B7
:100A380019460D4811F072FC4FF48053FB6007F122
:100A48000C031946094811F069FC01224FF4804152
:100A5800054812F04BF9FFF79DFE00BF2037BD4651
:100A680080BD00BF00380240000C02400014024064
:100A780080B582B000AF0346FB7100224FF480417D
:100A88000B4812F033F900224FF48051094812F054
:100A98002DF9FB791846FFF7DBFE01224FF4804160
:100AA800034812F023F900BF0837BD4680BD00BFD8
:100AB800000C02400014024080B582B000AF03462B
:100AC800FB7100224FF480410B4812F00FF901220C
:100AD8004FF48051094812F009F9FB791846FFF7DD
:100AE800B7FE01224FF48041034812F0FFF800BF1F
:100AF8000837BD4680BD00BF000C0240001402400C
:100B080080B584B000AF786039600023FB600023B3
:100B1800BB6000224FF48041294812F0E7F8012217
:100B28004FF48051274812F0E1F83B68012B05D1BA
:100B38007B681B781846FFF78BFE32E03B68FB604A
:100B480024E000BF204B1B689B6803F00203002BC6
:100B5800F8D01D4B1B680C337A6852781A7000BFA6
:100B6800194B1B689B6803F00203002BF8D0164B47
:100B78001B680C337A6812781A70FB68013BFB60BB
:100B88007B6802337B60FB68013BFB60FB68002BE2
:100B9800D7D100BF0C4B1B689B6803F08003002B68
:100BA800F8D1094B1B68DB68BB60BB6801224FF4B6
:100BB8008041034812F09AF800BF1037BD4680BD47
:100BC800000C0240001402406402002080B582B08C
:100BD80000AF7860786800F059FA00BF0837BD4662
:100BE80080BD00BF80B58AB000AF7860134A134B50
:100BF8001B6B43F020031363104B1B6B03F02003A4
:100C08003B613B6908237B610323BB610023FB61D4
:100C180007F1140319460A4811F080FB074A074BED
:100C28005B6C43F480635364044B5B6C03F4806334
:100C3800FB60FB6800BF2837BD4680BD0038024016
:100C48000014024080B588B000AF7860084A084BAD
:100C58005B6C23F4806353640823FB60FB681946CC
:100C6800044811F0E5FE00BF2037BD4680BD00BF37
:100C7800003802400014024080B500AF164801F069
:100C8800CBFD0346002B24D1134B144A1A60124B98
:100C98004FF480325A60104B00229A600E4B0022AB
:100CA800DA600D4B00229A610B4B00221A620A4B44
:100CB8000022DA62084B01225A61074B0122DA61ED
:100CC800054B00221A630448FFF78CFF024800F026
:100CD800F7FA00BF80BD00BFC80200200022014013
:100CE80080B500AF054B064A1A60044800F04CFC7A
:100CF8000248FFF7A7FF00BF80BD00BFC802002061
:100D08000022014080B582B000AF0123FB71FFF7DC
:100D1800B3FF0A4B09221A60084B00229A60074B5E
:100D280001225A600549064801F0CEFA0346FB71D4
:100D3800FB7918460837BD4680BD00BF1003002068
:100D4800C802002080B500AFFFF7CAFF00BF80BD12
:100D580080B582B000AF0023BB802E4800F076FC3F
:100D68000A212C4800F088FD2A4801F055FD034669
:100D780003F40073002B04D0264801F06FFA0346F1
:100D8800BB80BB8840F2DA72934207D9BB8840F631
:100D98002902934202D80523FB712DE0BB88B3F5E5
:100DA8002A7F06D9BB88B3F5437F02D20423FB719F
:100DB80022E0BB8840F2F642934207D9BB8840F252
:100DC8004552934202D80123FB7115E0BB88322BB0
:100DD80005D9BB88812B02D80223FB710CE0BB88A4
:100DE800B3F5666F06D9BB88B3F56B6F02D20323E0
:100DF800FB7101E00023FB71FB79002B04D005484F
:100E080001F02CFA0346BB80FB7918460837BD462B
:100E180080BD00BFC802002080B400AF154A154B42
:100E2800D3F8883043F47003C2F88830124A124B62
:100E38001B6843F0010313600F4B00229A600E49B0
:100E48000D4B1A680D4B13400B600B4B0C4A5A6044
:100E5800094A094B1B6823F480231360064B0022C0
:100E6800DA60044B4FF000629A6000BFBD465DF83F
:100E7800047B704700ED00E000380240FFFFF6FEFB
:100E88001030002480B487B000AF00233B610023FA
:100E98007B610223FB600023BB6002237B60324B33
:100EA8009B6803F00C033B613B69042B07D0082BBC
:100EB80009D0002B3FD12D4B2D4A1A603FE02B4B18
:100EC8002C4A1A603BE0284B5B6803F480039B0DB7
:100ED800BB60254B5B6803F03F037B60BB68002B5E
:100EE8000DD0244A7B68B2FBF3F21F4B596847F6D2
:100EF800C0730B409B0903FB02F37B610CE01C4AA7
:100F08007B68B2FBF3F2184B596847F6C0730B4085
:100F18009B0903FB02F37B61134B5B6803F44033CB
:100F28001B0C01335B00FB607A69FB68B2FBF3F3CF
:100F38000E4A136003E00D4B0D4A1A6000BF0A4BBE
:100F48009B6803F0F0031B090B4AD35C3B61074B1A
:100F58001A683B6922FA03F3044A136000BF1C377E
:100F6800BD465DF8047B7047003802402801002028
:100F78000024F40000127A006050050880B500AF24
:100F8800084A084B1B6843F400731360032005F0FC
:100F980029F90F2049F0DAFA22F064FD00231846F7
:100FA80080BD00BF003C024080B500AF134B4FF03E
:100FB800FF321A62114B00221A62104B4FF0FF32B7
:100FC8005A620E4B00225A620C4B4FF0FF321A61E4
:100FD8000A4B00221A61094B4FF0FF325A61074B46
:100FE80000225A61054B4FF0FF329A61034B0022F1
:100FF8009A6122F03FFD0023184680BD0038024068
:1010080080B400AF00BFBD465DF8047B704700BFE9
:1010180080B400AF00BFBD465DF8047B704700BFD9
:1010280080B582B000AF7860094B1B68094AA2FB03
:1010380003239B09184605F057F9002279684FF0F9
:10104800FF3005F0EFF8002318460837BD4680BD8D
:1010580028010020D34D621080B400AF044B1B68F8
:101068000133034A136000BFBD465DF8047B704737
:101078000804002080B400AF034B1B681846BD4627
:101088005DF8047B704700BF0804002080B584B079
:1010980000AF78600023FB60FFF7ECFFF86000BF4B
:1010A800FFF7E8FF0246FB68D21A7B689A42F7D33B
:1010B80000BF1037BD4680BD80B400AF054A054B60
:1010C8001B6823F00203136000BFBD465DF8047B74
:1010D800704700BF10E000E080B400AF054A054B40
:1010E8001B6843F00203136000BFBD465DF8047B34
:1010F800704700BF10E000E080B400AF024B184614
:10110800BD465DF8047B70470002020180B400AF61
:10111800034B1B681B0C1846BD465DF8047B7047E3
:10112800002004E080B400AF044B1B68C3F30B033A
:101138001846BD465DF8047B704700BF002004E0F8
:1011480080B400AF054A054B5B6843F00103536068
:1011580000BFBD465DF8047B704700BF002004E077
:1011680080B400AF054A054B5B6823F00103536068
:1011780000BFBD465DF8047B704700BF002004E057
:1011880080B400AF054A054B5B6843F00203536027
:1011980000BFBD465DF8047B704700BF002004E037
:1011A80080B400AF054A054B5B6823F00203536027
:1011B80000BFBD465DF8047B704700BF002004E017
:1011C80080B400AF054A054B5B6843F004035360E5
:1011D80000BFBD465DF8047B704700BF002004E0F7
:1011E80080B400AF054A054B5B6823F004035360E5
:1011F80000BFBD465DF8047B704700BF002004E0D7
:1012080080B400AF054A054B1B6A43F00103136223
:1012180000BFBD465DF8047B704700BF0038014041
:1012280080B400AF054A054B1B6A23F00103136223
:1012380000BFBD465DF8047B704700BF0038014021
:1012480080B400AF054A054B1B6843F48063136004
:1012580000BFBD465DF8047B704700BF0038014001
:1012680080B400AF054A054B1B6823F44063136044
:1012780000BFBD465DF8047B704700BF00380140E1
:1012880080B400AF054A054B1B6843F480731360B4
:1012980000BFBD465DF8047B704700BF00380140C1
:1012A80080B400AF054A054B1B6823F480731360B4
:1012B80000BFBD465DF8047B704700BF00380140A1
:1012C80080B584B000AF78600023FB737B68002B87
:1012D80001D1012353E17B681B689F4A93420ED0DA
:1012E8007B681B689D4A934209D07B681B689C4AAF
:1012F800934204D04FF487719A4852F01FFB7B68E1
:101308005B68002B13D07B685B68B3F5803F0ED019
:101318007B685B68B3F5003F09D07B685B68B3F511
:10132800403F04D040F20F118E4852F007FB7B6813
:101338009B68002B13D07B689B68B3F1807F0ED02D
:101348007B689B68B3F1007F09D07B689B68B3F129
:10135800407F04D04FF48871824852F0EFFA7B68DE
:101368001B69002B08D07B681B69012B04D040F255
:1013780011117C4852F0E2FA7B689B69002B08D077
:101388007B689B69012B04D04FF48971754852F032
:10139800D5FA7B689B6A002B4FD07B689B6AB3F1B8
:1013A800807F4AD07B689B6AB3F1007F45D07B6819
:1013B8009B6AB3F1407F40D07B689B6AB3F1806F32
:1013C8003BD07B689B6AB3F1A06F36D07B689B6A81
:1013D800B3F1C06F31D07B689B6AB3F1E06F2CD05A
:1013E8007B689B6AB3F1006F27D07B689B6AB3F177
:1013F800106F22D07B689B6AB3F1206F1DD07B6889
:101408009B6AB3F1306F18D07B689B6AB3F1406F69
:1014180013D07B689B6AB3F1506F0ED07B689B6AD0
:10142800B3F1706F09D07B689B6A4F4A934204D02E
:1014380040F213114B4852F081FA7B68DB68002BAD
:1014480009D07B68DB68B3F5006F04D04FF48A716C
:10145800444852F073FA7B68DB69002B03D07B6841
:10146800DB69102B04D940F215113E4852F066FA98
:101478007B681B6B002B08D07B681B6B012B04D08F
:101488004FF48B71374852F059FA7B685B69012B2E
:101498000CD07B685B69002B08D07B685B69022BEA
:1014A80004D040F217112F4852F048FA7B681B6AA3
:1014B800002B08D07B681B6A012B04D04FF48C7179
:1014C800284852F03BFA7B689B6A274A934217D018
:1014D8007B68DB6A002B13D07B68DB6AB3F1805F23
:1014E8000ED07B68DB6AB3F1005F09D07B68DB6AEA
:1014F800B3F1405F04D04FF48E711A4852F01EFACF
:101508007B681B6C002B09D17B6800225A647B68BE
:10151800002283F83C20786800F084F87B681B6C14
:1015280003F01003002B23D17B681A6C0F4B134078
:1015380043F002027B681A64786801F085F97B68D9
:1015480000225A647B681B6C23F0030343F00102FA
:101558007B681A640EE000BF0020014000210140B2
:1015680000220140785005080100000FFDEEFFFF42
:101578000123FB737B68002283F83C20FB7B184621
:101588001037BD4680BD00BF80B584B000AF78601D
:101598000023FB737B68002B01D1012336E07B68B5
:1015A8001B681C4A93420ED07B681B681A4A9342F8
:1015B80009D07B681B68194A934204D040F25B113A
:1015C800174852F0BBF97B681B6C43F002027B683A
:1015D8001A647B681B687A681268926822F00102B4
:1015E8009A607B681B689B6803F00103002B08D195
:1015F800786800F021F87B6800225A647B68002232
:101608001A647B68002283F83C20FB7B184610375D
:10161800BD4680BD0020014000210140002201405C
:101628007850050880B483B000AF786000BF0C37ED
:10163800BD465DF8047B704780B483B000AF786026
:1016480000BF0C37BD465DF8047B704780B584B099
:1016580000AF78600023FB607B689B69002B08D093
:101668007B689B69012B04D04FF4DD71554852F01B
:1016780065F97B68DB6A002B13D07B68DB6AB3F102
:10168800805F0ED07B68DB6AB3F1005F09D07B68AE
:10169800DB6AB3F1405F04D040F2BB11494852F015
:1016A8004DF97B6893F83C30012B01D1022385E08A
:1016B8007B68012283F83C207B681B689B6803F0E9
:1016C8000103002B18D17B681B687A68126892683E
:1016D80042F001029A603C4B1B683C4AA2FB032380
:1016E8009A0C13465B001344FB6002E0FB68013B65
:1016F800FB60FB68002BF9D17B681B689B6803F0D3
:101708000103002B59D07B681A6C314B134043F40A
:1017180080727B681A647B681B685B6803F480636B
:10172800002B07D07B681B6C23F4405343F4805292
:101738007B681A647B681B6C03F48053002B06D00B
:101748007B685B6C23F006027B685A6402E07B6866
:1017580000225A647B68002283F83C207B681B685F
:101768006FF022021A601B4B5B6803F01F03002B0B
:101778000FD17B681B689B6803F04053002B1CD17A
:101788007B681B687A681268926842F080429A60A7
:1017980013E07B681B68104A93420ED17B681B6874
:1017A8009B6803F04053002B07D17B681B687A685D
:1017B8001268926842F080429A60002318461037F7
:1017C800BD4680BD785005082801002083DE1B43F4
:1017D800FEF8FFFF002301400020014080B582B0E1
:1017E80000AF78607B681B681E4A93420ED07B6806
:1017F8001B681D4A934209D07B681B681B4A9342A9
:1018080004D040F21D211A4852F098F87B6893F8EA
:101818003C30012B01D102231FE07B68012283F8B1
:101828003C207B681B687A681268926822F0010283
:101838009A607B681B689B6803F00103002B07D143
:101848007B681A6C0B4B134043F001027B681A64E7
:101858007B68002283F83C20002318460837BD46E1
:1018680080BD00BF0020014000210140002201404E
:1018780078500508FEEEFFFF80B584B000AF7860B1
:1018880039600023FB607B681B689B6803F48063F6
:10189800002B12D07B681B689B6803F48073002BB5
:1018A8000BD07B681B6C43F020027B681A647B6852
:1018B800002283F83C2001235CE0FFF7DBFBF860A3
:1018C8001AE03B68B3F1FF3F16D03B68002B07D006
:1018D800FFF7D0FB0246FB68D21A3B689A420BD945
:1018E8007B681B6C43F004027B681A647B680022E7
:1018F80083F83C2003233DE07B681B681B6803F0EA
:101908000203002BDDD07B681B686FF012021A609F
:101918007B681B6C43F400727B681A647B681B68E5
:101928009B6803F04053002B23D17B689B69002BF5
:101938001FD17B681B68DB6A03F47003002B06D099
:101948007B681B689B6803F48063002B11D17B685C
:101958001B6C23F480727B681A647B681B6C03F42D
:101968008053002B05D17B681B6C43F001027B6818
:101978001A64002318461037BD4680BD80B586B06E
:1019880000AFF860B9607A6000237B61FB681B6870
:10199800344A93420ED0FB681B68334A934209D0FD
:1019A800FB681B68314A934204D040F29F213048BB
:1019B80051F0C4FFBB68012B07D0BB68202B04D0B3
:1019C8004FF428712A4851F0B9FFFFF753FB7861AB
:1019D8001AE07B68B3F1FF3F16D07B68002B07D075
:1019E800FFF748FB02467B69D21A7B689A420BD9FB
:1019F800FB681B6C43F00402FB681A64FB68002256
:101A080083F83C20032328E0FB681B681A68BB683E
:101A18001A40BB689A42DCD1BB68012B0BD1FB682A
:101A28001B6C43F48032FB681A64FB681B686FF018
:101A380001021A6010E0FB681B6C43F48062FB68CB
:101A48001A64FB685B6C43F00202FB685A64FB682B
:101A58001B686FF020021A60002318461837BD462D
:101A680080BD00BF0020014000210140002201404C
:101A78007850050880B584B000AF78600023FB601B
:101A88007B689B69002B08D07B689B69012B04D07D
:101A980040F2DD21594851F051FF7B68DB6A002B89
:101AA80013D07B68DB6AB3F1805F0ED07B68DB6A9A
:101AB800B3F1005F09D07B68DB6AB3F1405F04D003
:101AC80040F2DE214D4851F039FF7B6893F83C30F5
:101AD800012B01D102238DE07B68012283F83C2091
:101AE8007B681B689B6803F00103002B18D17B6897
:101AF8001B687A681268926842F001029A60404B4B
:101B08001B68404AA2FB03239A0C13465B0013444C
:101B1800FB6002E0FB68013BFB60FB68002BF9D12E
:101B28007B681B689B6803F00103002B61D07B680E
:101B38001A6C354B134043F480727B681A647B68D7
:101B48001B685B6803F48063002B07D07B681B6C01
:101B580023F4405343F480527B681A647B681B6CFF
:101B680003F48053002B06D07B685B6C23F00602DD
:101B78007B685A6402E07B6800225A647B68002212
:101B880083F83C207B681B686FF022021A607B6830
:101B98001A687B681B6859681C4B0B4353601C4BC5
:101BA8005B6803F01F03002B0FD17B681B689B68E1
:101BB80003F04053002B1CD17B681B687A681268BD
:101BC800926842F080429A6013E07B681B68114A71
:101BD80093420ED17B681B689B6803F04053002B2F
:101BE80007D17B681B687A681268926842F0804265
:101BF8009A60002318461037BD4680BD7850050806
:101C08002801002083DE1B43FEF8FFFF20000004AC
:101C1800002301400020014080B582B000AF786009
:101C28007B681B68224A93420ED07B681B68214A56
:101C3800934209D07B681B681F4A934204D040F244
:101C480042311E4851F07AFE7B6893F83C30012BF4
:101C580001D1022327E07B68012283F83C207B68BE
:101C68001B687A681268926822F001029A607B68A1
:101C78001B689B6803F00103002B0FD17B681A686F
:101C88007B681B6859680E4B0B4053607B681A6C65
:101C98000C4B134043F001027B681A647B680022F6
:101CA80083F83C20002318460837BD4680BD00BF96
:101CB8000020014000210140002201407850050821
:101CC800DFFFFFFBFEEEFFFF80B584B000AF78605A
:101CD8000023FB600023BB607B689B69002B08D056
:101CE8007B689B69012B04D040F26931604851F050
:101CF80025FE7B68DB69002B03D07B68DB69102B32
:101D080004D940F26A315A4851F018FE7B685B6981
:101D1800012B0CD07B685B69002B08D07B685B6962
:101D2800022B04D040F26B31514851F007FE7B681A
:101D38001B681B6803F00203002B14BF0123002358
:101D4800DBB2FB607B681B685B6803F02003002B39
:101D580014BF01230023DBB2BB60FB68002B49D012
:101D6800BB68002B46D07B681B6C03F01003002B6C
:101D780005D17B681B6C43F400727B681A647B682E
:101D88001B689B6803F04053002B2BD17B689B6931
:101D9800002B27D17B681B68DB6A03F47003002BD8
:101DA80006D07B681B689B6803F48063002B19D1FD
:101DB8007B681B687A681268526822F020025A60B1
:101DC8007B681B6C23F480727B681A647B681B6CCD
:101DD80003F48053002B05D17B681B6C43F0010290
:101DE8007B681A64786800F047FA7B681B686FF0B4
:101DF80012021A607B681B681B6803F00403002B3F
:101E080014BF01230023DBB2FB607B681B685B689F
:101E180003F08003002B14BF01230023DBB2BB6057
:101E2800FB68002B5AD0BB68002B57D07B681B6C13
:101E380003F01003002B05D17B681B6C43F40052A0
:101E48007B681A647B681B689B6803F44013002B4B
:101E58003CD17B681B689B6B03F44013002B09D0B3
:101E68007B681B689B6803F48063002B2ED101E01C
:101E7800785005087B681B685B6803F48063002B57
:101E880024D17B681B689B6803F04053002B1DD14D
:101E98007B689B69002B19D17B681B687A6812687C
:101EA800526822F080025A607B681B6C23F48052CF
:101EB8007B681A647B681B6C03F48073002B05D164
:101EC8007B681B6C43F001027B681A64786801F038
:101ED800B7FA7B681B686FF00C021A607B681B6896
:101EE8001B6803F00103002B14BF01230023DBB29E
:101EF800FB607B681B685B6803F04003002B14BF22
:101F080001230023DBB2BB60FB68002B17D0BB6842
:101F1800002B14D07B681B681B6803F00103002B9F
:101F28000DD07B681B6C43F480327B681A64786838
:101F380000F0B6F97B681B686FF001021A607B68D5
:101F48001B681B6803F02003002B14BF0123002328
:101F5800DBB2FB607B681B685B6803F08063002B67
:101F680014BF01230023DBB2BB60FB68002B15D034
:101F7800BB68002B12D07B685B6C43F002027B6865
:101F88005A647B681B686FF020021A60786800F05A
:101F980091F97B681B686FF020021A6000BF103748
:101FA800BD4680BD80B586B000AFF860B9607A6084
:101FB80000237B61FB689B69002B08D0FB689B6949
:101FC800012B04D040F2FA31684851F0B7FCFB68A5
:101FD800DB6A002B13D0FB68DB6AB3F1805F0ED09D
:101FE800FB68DB6AB3F1005F09D0FB68DB6AB3F119
:101FF800405F04D040F2FB315C4851F09FFCFB6825
:1020080093F83C30012B01D10223ABE0FB6801229D
:1020180083F83C20FB681B689B6803F00103002BD6
:1020280018D1FB681B68FA681268926842F00102CE
:102038009A604F4B1B684F4AA2FB03239A0C134626
:102048005B0013447B6102E07B69013B7B617B6938
:10205800002BF9D1FB681B689B6803F00103002B78
:102068007FD0FB681A6C444B134043F48072FB68C2
:102078001A64FB681B685B6803F48063002B07D055
:10208800FB681B6C23F4405343F48052FB681A64CA
:10209800FB681B6C03F48053002B06D0FB685B6C59
:1020A80023F00602FB685A6402E0FB6800225A64C7
:1020B800FB68002283F83C20FB689B6B2F4ADA639D
:1020C800FB689B6B2E4A1A64FB689B6B2D4ADA648B
:1020D800FB681B686FF022021A60FB681B68FA68CD
:1020E8001268526842F080625A60FB681B68FA689E
:1020F8001268926842F480729A60FB68986BFB6879
:102108001B684C331946BA687B6809F015FF1E4BEB
:102118005B6803F01F03002B0FD1FB681B689B68EB
:1021280003F04053002B1CD1FB681B68FA68126847
:10213800926842F080429A6013E0FB681B68134A79
:1021480093420ED1FB681B689B6803F04053002B39
:1021580007D1FB681B68FA681268926842F08042EF
:102168009A60002318461837BD4680BD7850050888
:102178002801002083DE1B43FEF8FFFF712A0008B8
:10218800192B0008352B00080023014000200140CE
:1021980080B584B000AF78600023FB737B681B6850
:1021A800294A93420ED07B681B68284A934209D07B
:1021B8007B681B68264A934204D040F27141254847
:1021C80051F0BCFB7B6893F83C30012B01D1022312
:1021D80036E07B68012283F83C207B681B687A68BC
:1021E8001268926822F001029A607B681B689B68FB
:1021F80003F00103002B1ED17B681B687A68126804
:10220800926822F480729A607B689B6B184609F08A
:1022180001FF0346FB737B681B687A681268526883
:1022280022F080625A607B681A6C0B4B134043F0B3
:1022380001027B681A647B68002283F83C20FB7BE0
:1022480018461037BD4680BD0020014000210140DE
:102258000022014078500508FEEEFFFF80B483B0ED
:1022680000AF78607B681B68DB6C18460C37BD468E
:102278005DF8047B704700BF80B483B000AF78601E
:1022880000BF0C37BD465DF8047B704780B483B04F
:1022980000AF786000BF0C37BD465DF8047B70471F
:1022A80080B483B000AF786000BF0C37BD465DF8DE
:1022B800047B704780B483B000AF786000BF0C37F0
:1022C800BD465DF8047B704790B585B000AF786077
:1022D80039600023FB603B681B68122B09D93B68F7
:1022E8001B68944A934204D040F20451924851F03A
:1022F80025FB3B685B68012B40D03B685B68022B81
:102308003CD03B685B68032B38D03B685B68042B88
:1023180034D03B685B68052B30D03B685B68062B84
:102328002CD03B685B68072B28D03B685B68082B80
:1023380024D03B685B68092B20D03B685B680A2B7C
:102348001CD03B685B680B2B18D03B685B680C2B78
:1023580014D03B685B680D2B10D03B685B680E2B74
:102368000CD03B685B680F2B08D03B685B68102B70
:1023780004D040F20551704851F0E0FA3B689B6880
:10238800002B20D03B689B68012B1CD03B689B68C6
:10239800022B18D03B689B68032B14D03B689B68C2
:1023A800042B10D03B689B68052B0CD03B689B68BE
:1023B800062B08D03B689B68072B04D040F20651D7
:1023C8005D4851F0BBFA7B6893F83C30012B01D192
:1023D800022315E17B68012283F83C203B681B68D7
:1023E800092B34D97B6819687B681B68D8683B68F7
:1023F8001B689AB213465B0013441E3B072202FA7D
:1024080003F3DB430340CB603B681B68494A9342B4
:102418000AD17B681B687A681268D1683A68926842
:1024280012060A43DA6034E07B6819687B681B6827
:10243800D8683B689C683B681B689AB213465B0087
:1024480013441E3B04FA03F30343CB6021E07B688B
:1024580019687B681B6818693B681B689AB2134641
:102468005B001344072202FA03F3DB4303400B61CA
:102478007B6819687B681B6818693B689C683B68BF
:102488001B689AB213465B00134404FA03F3034330
:102498000B613B685B68062B23D87B6819687B68EF
:1024A8001B68586B3B685A6813469B001344053BEE
:1024B8001F2202FA03F3DB4303404B637B6819686E
:1024C8007B681B68586B3B681B689CB23B685A6802
:1024D80013469B001344053B04FA03F303434B6381
:1024E8004FE03B685B680C2B28D87B6819687B68D1
:1024F8001B68186B3B685A6813469B001344233BC0
:102508001F2202FA03F3DB4303400B637B6819685D
:102518007B681B68186B3B681B689CB23B685A68F1
:1025280013469B001344233B04FA03F303430B6352
:1025380027E000BF12000010785005087B68196872
:102548007B681B68D86A3B685A6813469B0013442B
:10255800413B1F2202FA03F3DB430340CB627B6853
:1025680019687B681B68D86A3B681B689CB23B6823
:102578005A6813469B001344413B04FA03F3034390
:10258800CB627B681B68204A934209D13B681B6871
:10259800122B05D11D4A1D4B5B6843F48003536021
:1025A8007B681B68184A934225D13B681B68184A08
:1025B800934203D03B681B68112B1CD1134A134B61
:1025C8005B6843F4000353603B681B68104A9342FE
:1025D80011D1104B1B68104AA2FB03239A0C134617
:1025E8009B0013445B00FB6002E0FB68013BFB605F
:1025F800FB68002BF9D17B68002283F83C2000237C
:1026080018461437BD4690BD002001400023014004
:10261800120000102801002083DE1B4380B584B01F
:1026280000AF786039600023FB603B681B68744A20
:10263800934221D03B681B68724A93421CD03B6886
:102648001B68714A934217D03B681B68B3F5000FAB
:1026580012D03B681B68B3F5800F0DD03B681B6830
:10266800B3F5400F08D03B681B68002B04D04FF42B
:10267800AF61664851F062F93B68DB68122B09D9F3
:102688003B68DB68624A934204D040F279515F4864
:1026980051F054F93B681B69002B08D03B681B6953
:1026A800012B04D040F27A51584851F047F97B6821
:1026B8001B685B6803F04073FB60FB68002B04D168
:1026C8003B685B68B3F5805F1DD3FB68B3F1807F1F
:1026D80004D13B685B68B3F5806F14D3FB68B3F132
:1026E800007F03D13B685B68FF2B0CD9FB68B3F113
:1026F800407F03D13B685B683F2B04D940F27E5191
:10270800424851F01BF9FB68002B04D13B689B68D9
:10271800B3F5805F1DD3FB68B3F1807F04D13B68BC
:102728009B68B3F5806F14D3FB68B3F1007F03D1C6
:102738003B689B68FF2B0CD9FB68B3F1407F03D142
:102748003B689B683F2B04D940F27F512F4851F0DA
:10275800F5F87B6893F83C30012B01D102234AE05D
:102768007B68012283F83C203B681B69012B08D158
:102778007B681B687A681268526842F040025A60A7
:1027880007E07B681B687A681268526822F040028A
:102798005A607B681A687B681B6859681D4B0B4038
:1027A80053607B681B687A68126851683A681268D7
:1027B8000A435A607B681B683A6852685A627B68A9
:1027C8001B683A6892689A627B681B687A68126824
:1027D800526822F01F025A607B681B687A68126888
:1027E80051683A68D26892B20A435A607B680022FC
:1027F80083F83C20002318461037BD4680BD00BF33
:1028080000028000000240000002C0007850050865
:1028180012000010FFFD3FFF80B483B000AF786066
:102828007B681B6C18460C37BD465DF8047B704707
:1028380080B483B000AF78607B685B6C18460C3757
:10284800BD465DF8047B704780B584B000AF786002
:10285800824A824B5B6823F4403353607F497F4B45
:102868005A687B685B6813434B607B681B687A68AF
:102878001268526822F480725A607B681B687A6812
:10288800126851687A68126912020A435A607B68B2
:102898001B687A681268526822F040725A607B6836
:1028A8001B687A68126851687A6892680A435A60A5
:1028B8007B681B687A681268926822F400629A60E2
:1028C8007B681B687A68126891687A68D2680A43DC
:1028D8009A607B689B6A624A934222D07B681B6835
:1028E8007A681268926822F070629A607B681B6846
:1028F8007A68126891687A68926A0A439A607B6873
:102908001B687A681268926822F040529A607B6865
:102918001B687A68126891687A68D26A0A439A6072
:102928000FE07B681B687A681268926822F0706210
:102938009A607B681B687A681268926822F0405235
:102948009A607B681B687A681268926822F00202B3
:102958009A607B681B687A68126891687A689269DD
:1029680052000A439A607B681B6A002B32D07B684E
:102978005B6A002B03D07B685B6A082B04D94FF491
:10298800C361384850F0DAFF7B681B687A681268C0
:10299800526842F400625A607B681B687A68126861
:1029A800526822F460425A607B685B6A5A1E4FF490
:1029B8006043FB60FB6893FAA3F3BB60BB68B3FAA0
:1029C80083F39A407B681B687968096849680A43F9
:1029D8005A6007E07B681B687A681268526822F4BC
:1029E80000625A607B681B687A681268D26A22F4AF
:1029F8007002DA627B681B687A681268D16A7A6842
:102A0800D269013A12050A43DA627B681B687A6860
:102A18001268926822F400729A607B681B687A6870
:102A2800126891687A68126B52020A439A607B684E
:102A38001B687A681268926822F480629A607B68E0
:102A48001B687A68126891687A68526992020A4328
:102A58009A6000BF1037BD4680BD00BF002301400B
:102A68000100000F7850050880B584B000AF786089
:102A78007B689B6BFB60FB681B6C03F05003002BAF
:102A88003CD1FB681B6C43F40072FB681A64FB685A
:102A98001B689B6803F04053002B2BD1FB689B6994
:102AA800002B27D1FB681B68DB6A03F47003002B3B
:102AB80006D0FB681B689B6803F48063002B19D160
:102AC800FB681B68FA681268526822F020025A6094
:102AD800FB681B6C23F48072FB681A64FB681B6C30
:102AE80003F48053002B05D1FB681B6C43F00102F3
:102AF800FB681A64F868FFF7BFFB04E0FB689B6B90
:102B0800DB6C7868984700BF1037BD4680BD00BFB2
:102B180080B584B000AF78607B689B6BFB60F86819
:102B2800FFF7B4FB00BF1037BD4680BD80B584B049
:102B380000AF78607B689B6BFB60FB6840221A647F
:102B4800FB685B6C43F00402FB685A64F868FFF7A3
:102B5800B1FB00BF1037BD4680BD00BF80B487B051
:102B680000AF78600023FB6000237B6100233B619A
:102B78007B6893F83C30012B01D1022399E07B68F4
:102B8800012283F83C207B681B689B6803F00103E3
:102B9800002B18D17B681B687A681268926842F02B
:102BA80001029A60464B1B68464AA2FB03239A0C13
:102BB80013465B001344FB6002E0FB68013BFB60CB
:102BC800FB68002BF9D17B681B689B6803F0010345
:102BD800002B6DD07B681A6C3B4B134043F480523A
:102BE8007B681A647B681B6C03F48073002B02D12A
:102BF8007B6800225A647B68002283F83C207B684B
:102C08001B686FF004021A60304B5B6803F01F0307
:102C1800002B24D17B681B689B6803F44013002BAE
:102C28000CBF01230023DBB27B617B681B685B68F8
:102C380003F48063002B0CBF01230023DBB23B614C
:102C48007B69002B34D03B69002B31D07B681B6833
:102C58007A681268926842F480029A6028E07B6879
:102C68001B689B6803F44013002B0CBF012300234F
:102C7800DBB27B617B681B685B6803F48063002BB5
:102C88000CBF01230023DBB23B617B681B68104A41
:102C980093420DD17B69002B0AD03B69002B07D0EA
:102CA8007B681B687A681268926842F480029A60AE
:102CB800002318461C37BD465DF8047B704700BFEB
:102CC8002801002083DE1B43FECFFFFF00230140C5
:102CD8000020014080B487B000AF78600023FB601B
:102CE80000237B6100233B617B6893F83C30012B18
:102CF80001D10223A1E07B68012283F83C207B6894
:102D08001B689B6803F00103002B18D17B681B68C4
:102D18007A681268926842F001029A604A4B1B680E
:102D28004A4AA2FB03239A0C13465B001344FB6038
:102D380002E0FB68013BFB60FB68002BF9D17B6874
:102D48001B689B6803F00103002B75D07B681A6C25
:102D58003F4B134043F480527B681A647B681B6CBA
:102D680003F48073002B02D17B6800225A647B68CD
:102D7800002283F83C207B681B686FF004021A600D
:102D88007B681B687A681268526842F080025A6051
:102D9800304B5B6803F01F03002B24D17B681B6852
:102DA8009B6803F44013002B0CBF01230023DBB204
:102DB8007B617B681B685B6803F48063002B0CBF36
:102DC80001230023DBB23B617B69002B34D03B69D4
:102DD800002B31D07B681B687A681268926842F4CD
:102DE80080029A6028E07B681B689B6803F44013A4
:102DF800002B0CBF01230023DBB27B617B681B68BF
:102E08005B6803F48063002B0CBF01230023DBB253
:102E18003B617B681B68104A93420DD17B69002B8C
:102E28000AD03B69002B07D07B681B687A68126858
:102E3800926842F480029A60002318461C37BD4607
:102E48005DF8047B704700BF2801002083DE1B4328
:102E5800FECFFFFF002301400020014080B584B071
:102E680000AF78600023FB737B681B68294A934294
:102E78000ED07B681B68284A934209D07B681B6880
:102E8800264A934204D04FF4B871254850F056FDB5
:102E98007B6893F83C30012B01D1022335E07B6835
:102EA800012283F83C207B681B6C03F48073002BA1
:102EB8001ED17B681B685B6803F48063002B17D105
:102EC8007B681B687A681268926822F001029A602F
:102ED8007B681B689B6803F00103002B10D17B689B
:102EE8001A6C104B134043F001027B681A6407E028
:102EF8007B681B6C43F020027B681A640123FB7318
:102F08007B68002283F83C20FB7B18461037BD46BF
:102F180080BD00BF00200140002101400022014087
:102F2800A0500508FEEEFFFF80B584B000AF7860C2
:102F380039600023FB60FEF79DF8F86017E03B68F6
:102F4800B3F1FF3F13D03B68002B07D0FEF792F890
:102F58000246FB68D21A3B689A4208D97B68042269
:102F68001A647B68002283F83C2003234BE07B68CB
:102F78001B681B6803F00403002BE0D07B681B6808
:102F88006FF00C021A607B681B6C43F400527B687C
:102F98001A647B681B689B6803F44013002B31D1CB
:102FA8007B681B689B6B03F44013002B06D07B687F
:102FB8001B689B6803F48063002B23D17B681B6824
:102FC8005B6803F48063002B1CD17B681B689B68DB
:102FD80003F04053002B15D17B689B69002B11D15E
:102FE8007B681B6C23F480527B681A647B681B6CBB
:102FF80003F48073002B05D17B681B6C43F001023E
:103008007B681A64002318461037BD4680BD00BF90
:1030180080B584B000AF78600023FB737B681B68C1
:103028002D4A93420ED07B681B682C4A934209D0E4
:103038007B681B682A4A934204D040F2E911294868
:1030480050F07CFC7B6893F83C30012B01D10223C3
:103058003DE07B68012283F83C207B681B6C03F40D
:103068008073002B26D17B681B685B6803F4806340
:10307800002B1FD17B681B687A681268926822F05F
:1030880001029A607B681B689B6803F00103002BB0
:1030980018D17B681B687A681268526822F080022F
:1030A8005A607B681A6C104B134043F001027B682E
:1030B8001A6407E07B681B6C43F020027B681A6483
:1030C8000123FB737B68002283F83C20FB7B1846B6
:1030D8001037BD4680BD00BF0020014000210140DF
:1030E80000220140A0500508FEEEFFFF80B584B025
:1030F80000AF786039600023FB603B68012B0DD07E
:103108003B68022B0AD03B68032B07D03B68042B93
:1031180004D040F22721184850F010FC7B681B6847
:103128006FF004021A603B68013B032B1ED801A212
:1031380052F823F06B31000861310008573100085C
:103148004D3100087B681B689B6CFB600FE07B6857
:103158001B685B6CFB600AE07B681B681B6CFB6090
:1031680005E07B681B68DB6BFB6000E000BFFB6869
:1031780018461037BD4680BDA050050880B586B0FA
:1031880000AFF860B9607A6000237B61FB689B69D7
:10319800002B08D0FB689B69012B04D040F25A2110
:1031A800644850F0CBFBFB68DB6A002B13D0FB684C
:1031B800DB6AB3F1805F0ED0FB68DB6AB3F1005FB6
:1031C80009D0FB68DB6AB3F1405F04D040F25B21B1
:1031D800584850F0B3FBFB681B6B002B08D0FB680A
:1031E8001B6B012B04D04FF41771524850F0A6FB0B
:1031F800FB6893F83C30012B01D1022396E0FB6871
:10320800012283F83C20FB681B689B6803F00103DC
:10321800002B18D1FB681B68FA681268926842F0A4
:1032280001029A60444B1B68444AA2FB03239A0C90
:1032380013465B0013447B6102E07B69013B7B61C1
:103248007B69002BF9D1FB681B689B6803F00103BD
:10325800002B6AD0FB681A6C394B134043F4807218
:10326800FB681A64FB681B685B6803F48063002BC7
:1032780007D0FB681B6C23F4405343F48052FB686F
:103288001A64FB681B6C03F48053002B06D0FB68A0
:103298005B6C23F00602FB685A6402E0FB680022BC
:1032A8005A64FB68002283F83C20FB689B6B254A24
:1032B800DA63FB689B6B244A1A64FB689B6B234A9E
:1032C800DA64FB681B686FF002021A60FB681B680F
:1032D800FA681268526842F080625A60FB681B6B99
:1032E800002B06D01A4A1A4B5B6843F4005353600C
:1032F80005E0174A164B5B6823F400535360FB68DC
:10330800986BBA687B68134908F016FEFB681B685F
:103318009B6803F04053002B07D1FB681B68FA68D1
:103328001268926842F080429A6000231846183763
:10333800BD4680BDA05005082801002083DE1B4340
:10334800FEF8FFFF613B0008093C0008253C000827
:10335800002301400823014080B584B000AF7860A5
:103368000023FB737B681B68284A93420ED07B6856
:103378001B68274A934209D07B681B68254A9342F9
:1033880004D040F2CB21244850F0D8FA7B6893F857
:103398003C30012B01D1022334E07B68012283F801
:1033A8003C207B681B687A681268926822F00102E8
:1033B8009A607B681B689B6803F00103002B1CD193
:1033C800164A164B5B6823F4005353607B689B6B6B
:1033D800184608F01FFE0346FB737B681B687A6873
:1033E8001268526822F080625A607B681A6C0C4B33
:1033F800134043F001027B681A647B68002283F85B
:103408003C20FB7B18461037BD4680BD002001409C
:103418000021014000220140A0500508002301407E
:10342800FEEEFFFF80B483B000AF7860034B9B686B
:1034380018460C37BD465DF8047B704700230140F1
:1034480080B483B000AF786000BF0C37BD465DF82C
:10345800047B704790B585B000AF78603960002371
:10346800FB603B681B68122B09D93B681B689A4AAA
:10347800934204D040F21A31984850F05FFA3B6802
:103488005B68012B10D03B685B68022B0CD03B6853
:103498005B68032B08D03B685B68042B04D040F2C0
:1034A8001B318E4850F04AFA3B689B68002B20D0AD
:1034B8003B689B68012B1CD03B689B68022B18D08B
:1034C8003B689B68032B14D03B689B68042B10D087
:1034D8003B689B68052B0CD03B689B68062B08D083
:1034E8003B689B68072B04D04FF447717B4850F02A
:1034F80025FA3B68DB69002B4AD03B68DB69B3F5EA
:10350800803F45D03B68DB69B3F5003F40D03B685E
:10351800DB69B3F5403F3BD03B68DB69B3F5802FEF
:1035280036D03B68DB69B3F5A02F31D03B68DB6947
:10353800B3F5E02F2CD03B68DB69B3F5002F27D01B
:103548003B68DB69B3F5102F22D03B68DB69B3F524
:10355800202F1DD03B68DB69B3F5302F18D03B68AE
:10356800DB69B3F5402F13D03B68DB69B3F5502F07
:103578000ED03B68DB69B3F5602F09D03B68DB6987
:10358800574A934204D040F21D31544850F0D6F9BE
:103598003B681B69002B03D03B681B69042B04D9CB
:1035A80040F21E314D4850F0C9F93B689B69002B29
:1035B80008D03B689B69012B04D040F21F31474873
:1035C80050F0BCF93B685B69002B08D03B685B692D
:1035D800012B04D04FF44871404850F0AFF97B6894
:1035E8001B685B6803F04073FB60FB68002B04D129
:1035F8003B68DB68B3F5805F1DD3FB68B3F1807F60
:1036080004D13B68DB68B3F5806F14D3FB68B3F172
:10361800007F03D13B68DB68FF2B0CD9FB68B3F153
:10362800407F03D13B68DB683F2B04D94FF44971D5
:103638002A4850F083F93B68DB69294A934217D03E
:103648003B681B6A002B13D03B681B6AB3F5801FCD
:103658000ED03B681B6AB3F5001F09D03B681B6A94
:10366800B3F5401F04D040F229311C4850F066F9E8
:103678007B6893F83C30012B01D1022374E17B680D
:10368800012283F83C203B681B68092B2AD97B68F8
:1036980019687B681B68D8683B681B689AB2134630
:1036A8005B0013441E3B072202FA03F3DB4303408B
:1036B800CB607B6819687B681B68D8683B689C6826
:1036C8003B681B689AB213465B0013441E3B04FA1E
:1036D80003F30343CB6027E012000010A050050855
:1036E80001000F007B6819687B681B6818693B68D4
:1036F8001B689AB213465B001344072202FA03F3CD
:10370800DB4303400B617B6819687B681B68186999
:103718003B689C683B681B689AB213465B0013447D
:1037280004FA03F303430B617B681B687A68126829
:10373800926B22F440129A637B681B687A6812685D
:10374800916B3A681269013A12050A439A637B68D9
:103758001A687B681B68996B3B685B68D8B23B68E2
:103768001B69DBB2C31ADBB20333DBB2184603466C
:103778009B0003441F2000FA03F3DB430B409363D1
:103788007B681A687B681B68996B3B681B6898B2F2
:103798003B685B68DCB23B681B69DBB2E31ADBB2EF
:1037A8000333DBB21C4623469B00234400FA03F391
:1037B8000B4393633B68DB696D4A934222D07B6875
:1037C8001B687A681268926822F470229A607B6893
:1037D8001B687A68126891683A68D2690A439A60E5
:1037E8007B681B687A681268926822F440129A60B3
:1037F8007B681B687A68126891683A68126A0A439B
:103808009A600FE07B681B687A681268926822F4F5
:1038180070229A607B681B687A681268926822F442
:1038280040129A603B689B69002B08D07B681B6834
:103838007A681268526842F480625A6007E07B68CE
:103848001B687A681268526822F480625A603B6882
:103858005B69002B08D07B681B687A68126852681D
:1038680042F480525A6007E07B681B687A681268E5
:10387800526822F480525A603B685B68022B15D06C
:10388800032B25D0012B35D17B681A687B681B6810
:103898005969384B0B4053617B681B687A6812681A
:1038A80051693A68D2680A435A6135E07B681A68F8
:1038B8007B681B6899692F4B0B4093617B681B6879
:1038C8007A68126891693A68D2680A439A6123E073
:1038D8007B681A687B681B68D969264B0B40D361E3
:1038E8007B681B687A681268D1693A68D2680A43AB
:1038F800DA6111E07B681A687B681B68196A1D4BDE
:103908000B4013627B681B687A681268116A3A6810
:10391800D2680A431A6200BF7B681B68164A934242
:1039280009D13B681B68122B05D1144A134B5B68FD
:1039380043F4800353607B681B680F4A93420ED19F
:103948003B681B680E4A934203D03B681B68112BE7
:1039580005D10A4A094B5B6843F4000353607B684E
:10396800002283F83C20002318461437BD4690BD3A
:1039780001000F0000F0FFFF00200140002301407C
:103988001200001080B582B000AF786039603B68E3
:103998001B68002B34D03B681B68012B30D03B6878
:1039A8001B68022B2CD03B681B68052B28D03B6872
:1039B8001B68062B24D03B681B68072B20D03B686C
:1039C8001B68092B1CD03B681B68112B18D03B685F
:1039D8001B68122B14D03B681B68152B10D03B6852
:1039E8001B68162B0CD03B681B68172B08D03B684C
:1039F8001B68192B04D040F2B13155484FF09EFF97
:103A08003B685B68002B13D03B685B68B3F5804F5D
:103A18000ED03B685B68B3F5004F09D03B685B6824
:103A2800B3F5404F04D040F2B23149484FF086FF19
:103A38003B689B68002B4FD03B689B68B3F5807F41
:103A48004AD03B689B68B3F5007F45D03B689B68CC
:103A5800B3F5407F40D03B689B68B3F5806F3BD09F
:103A68003B689B68B3F5A06F36D03B689B68B3F59D
:103A7800C06F31D03B689B68B3F5E06F2CD03B68D2
:103A88009B68B3F5006F27D03B689B68B3F5106F50
:103A980022D03B689B68B3F5206F1DD03B689B68BC
:103AA800B3F5306F18D03B689B68B3F5406F13D0FF
:103AB8003B689B68B3F5506F0ED03B689B68B3F5C5
:103AC800606F09D03B689B68B3F5706F04D040F213
:103AD800B3311F484FF032FF7B6893F83C30012B1D
:103AE80001D102232FE07B68012283F83C20194A88
:103AF800184B5B6823F01F0353601649154B5A682F
:103B08003B681B6813434B60124A124B5B6823F4F3
:103B1800404353600F490F4B5A683B685B68134337
:103B28004B600C4A0B4B5B6823F470635360094984
:103B3800084B5A683B689B6813434B607B680022BC
:103B480083F83C20002318460837BD4680BD00BFD7
:103B5800A05005080023014080B584B000AF78600C
:103B68007B689B6BFB60FB681B6C03F05003002BAE
:103B78003CD1FB681B6C43F40072FB681A64FB6859
:103B88001B689B6803F04053002B2BD1FB689B6993
:103B9800002B27D1FB681B68DB6A03F47003002B3A
:103BA80006D0FB681B689B6803F48063002B19D15F
:103BB800FB681B68FA681268526822F020025A6093
:103BC800FB681B6C23F48072FB681A64FB681B6C2F
:103BD80003F48053002B05D1FB681B6C43F00102F2
:103BE800FB681A64F868FEF747FB04E0FB689B6B08
:103BF800DB6C7868984700BF1037BD4680BD00BFB2
:103C080080B584B000AF78607B689B6BFB60F86818
:103C1800FEF73CFB00BF1037BD4680BD80B584B0C1
:103C280000AF78607B689B6BFB60FB6840221A647E
:103C3800FB685B6C43F00402FB685A64F868FEF7A3
:103C480039FB00BF1037BD4680BD00BF80B584B0CA
:103C580000AF78600023FB600023BB607B68002B0B
:103C680001D10123C2E17B681B689B4A93420DD0B6
:103C78007B681B68994A934208D07B681B68984AFE
:103C8800934203D0B72197484FF058FE7B689B6951
:103C9800002B07D07B689B69012B03D0B821914882
:103CA8004FF04CFE7B68DB69002B07D07B68DB6933
:103CB800012B03D0B9218B484FF040FE7B681B6A6B
:103CC800002B07D07B681B6A012B03D0BA218548DB
:103CD8004FF034FE7B685B6A002B07D07B685B6A19
:103CE800012B03D0BB217F484FF028FE7B689B6ADD
:103CF800002B07D07B689B6A012B03D0BC21794835
:103D08004FF01CFE7B68DB6A002B07D07B68DB6A00
:103D1800012B03D0BD2173484FF010FE7B689B68D0
:103D2800002B12D07B689B68B3F1804F0DD07B6865
:103D38009B68B3F1004F08D07B689B68B3F1404F94
:103D480003D0BE2167484FF0F9FD7B68DB68002B84
:103D580012D07B68DB68B3F1807F0DD07B68DB68AD
:103D6800B3F1007F08D07B68DB68B3F1407F03D0F4
:103D7800BF215C484FF0E2FD7B681B69B3F5702FEB
:103D880003D9C02157484FF0D9FD7B685B69B3F56B
:103D9800E00F03D9C12153484FF0D0FD7B685B6821
:103DA800002B04D07B685B68B3F5806F03D9C22110
:103DB8004C484FF0C3FD7B6893F83C30DBB2002BD6
:103DC80006D17B68002283F83D20786800F06AFA03
:103DD8007B68022283F83C207B681B687A6812683B
:103DE800126822F002021A607B681B687A681268FF
:103DF800126842F001021A60FDF73CF9B86010E061
:103E0800FDF738F90246BB68D31A0A2B09D97B6833
:103E1800032283F83C207B68002283F83D2003239B
:103E2800E4E07B681B685B6803F00103002BE7D0C4
:103E38007B681B685B6803F00103002B00F0C580FA
:103E48007B689B69012B08D17B681B687A681268BC
:103E5800126842F080021A6007E07B681B687A6883
:103E68001268126822F080021A607B68DB69012BF5
:103E780008D17B681B687A681268126842F04002B1
:103E88001A6007E07B681B687A681268126822F07B
:103E980040021A607B681B6A012B08D17B681B688B
:103EA8007A681268126842F020021A6007E07B689C
:103EB8001B687A681268126822F020021A607B6810
:103EC8005B6A012B10D17B681B687A6812681268DC
:103ED80042F010021A600FE00064004000680040E1
:103EE80000340040CC5005087B681B687A6812686B
:103EF800126822F010021A607B689B6A012B08D1B5
:103F08007B681B687A681268126842F008021A60B7
:103F180007E07B681B687A681268126822F008025A
:103F28001A607B68DB6A012B08D17B681B687A689A
:103F38001268126842F004021A6007E07B681B6886
:103F48007A681268126822F004021A607B681B689B
:103F58007A6891687A68D26811437A68126911435D
:103F68007A68526911437A685268013A0A43DA61F9
:103F78007B681B687A681268126822F001021A606E
:103F8800FDF778F8B86010E0FDF774F80246BB68F2
:103F9800D31A0A2B09D97B68032283F83C207B6853
:103FA800002283F83D20032320E07B681B685B68C0
:103FB80003F00103002BE7D17B681B685B6803F003
:103FC8000103002B01D10123FB60FB68012B08D101
:103FD8007B6800221A647B68012283F83C20002356
:103FE80004E07B68042283F83C200123184610373C
:103FF800BD4680BD80B584B000AF786039600023CD
:10400800BB603B685B691B2B04D94FF4B4718548CE
:104018004FF094FC3B689B69002B08D03B689B6978
:10402800012B04D040F269117E484FF087FC3B68B1
:10403800DB69002B08D03B68DB69012B04D04FF407
:10404800B57178484FF07AFC3B681B69002B08D0A3
:104058003B681B69012B04D040F26B1171484FF08B
:104068006DFC3B681B6A002B08D03B681B6A012B60
:1040780004D04FF4B6716B484FF060FC3B685B6A44
:104088001C2B04D940F26D1166484FF057FC3B6871
:104098005B69012202FA03F3BB607B681B68624A12
:1040A800934202D1604BFB6001E0604BFB60FB6810
:1040B800D3F8003243F00102FB68C3F80022FB6822
:1040C800D3F8003223F47C52FB68C3F80022FB6863
:1040D800D3F800223B685B6A1B021A43FB68C3F8EB
:1040E8000022FB68D3F81C22BB68DB431A40FB683C
:1040F800C3F81C223B68DB69002B23D1FB68D3F88B
:104108000C22BB68DB431A40FB68C3F80C223B68EF
:104118005A693B68DB6819043B685B689BB21943C2
:10412800FB68483243F832103B685B693A6892682A
:1041380011043A68126892B20A43F9684833DB00FE
:104148000B445A603B68DB69012B22D1FB68D3F82A
:104158000C22BB681A43FB68C3F80C223B685A69F7
:104168003B681B6819043B685B689BB21943FB6892
:10417800483243F832103B685B693A689268110428
:104188003A68D26892B20A43F9684833DB000B44B4
:104198005A603B689B69002B09D1FB68D3F804225D
:1041A800BB68DB431A40FB68C3F8042207E0FB68DE
:1041B800D3F80422BB681A43FB68C3F804223B689F
:1041C8001B69002B08D1FB68D3F81422BB68DB43BA
:1041D8001A40FB68C3F814223B681B69012B07D1FE
:1041E800FB68D3F81422BB681A43FB68C3F814228F
:1041F8003B681B6A012B07D1FB68D3F81C22BB68FC
:104208001A43FB68C3F81C22FB68D3F8003223F07A
:104218000102FB68C3F80022002318461037BD4688
:1042280080BD00BFCC500508003400400064004049
:1042380080B582B000AF78607B68002B01D1012384
:1042480023E07B681B68134A93420ED07B681B6887
:10425800114A934209D07B681B68104A934204D0E4
:104268004FF4F1710E484FF069FB7B68022283F826
:104278003C20786800F020F87B68002283F83C2016
:104288007B68002283F83D20002318460837BD4686
:1042980080BD00BF0064004000680040003400405A
:1042A800CC50050880B483B000AF786000BF0C37ED
:1042B800BD465DF8047B704780B483B000AF78607A
:1042C80000BF0C37BD465DF8047B704780B584B0ED
:1042D80000AF786039600423FB600023BB607B6813
:1042E8001B6B9B68002B09D07B681B6B9B68042B9E
:1042F80004D04FF40D71A2484FF020FB7B681B6B74
:10430800DB68002B09D07B681B6BDB68022B04D0B1
:1043180040F235219A484FF011FB7B681B6B1B69F3
:10432800082B04D940F2362195484FF007FB7B68EB
:104338001B689B6803F08063002B0ED17B681B68A9
:104348009B6803F00063002B07D17B681B689B68A0
:1043580003F08053002B00F093817B6893F83D3085
:10436800012B01D1022390E17B68012283F83D20D3
:104378007B6893F83C30DBB2322B08D0622B0BD031
:10438800222B0ED17B68422283F83C200EE07B680A
:10439800522283F83C2009E07B68722283F83C2093
:1043A80004E07B68122283F83C2000BF7B681B680E
:1043B8009B6803F08063002B02D00023FB600BE0B6
:1043C8007B681B689B6803F00063002B02D0012305
:1043D800FB6001E00223FB607B6819687B681A6850
:1043E800FB6818331B0113441B6803F00102FB68C8
:1043F80018331B010B441A607B681B6B9B68002BEE
:1044080022D17B681B6B1B68B3F5006F04D340F2A5
:1044180062215B484FF092FA7B6819687B681A68DA
:10442800FB6818331B0113441A687B681B6B1B68F5
:1044380058057B681B6BDB6803431A43FB6818331A
:104448001B010B441A6025E07B681B6B5B68B3F1AA
:10445800005F04D34FF41A7149484FF06FFA7B6834
:1044680019687B681A68FB6818331B0113441A68BB
:104478007B681B6B5B68D8007B681B6B9B68184369
:104488007B681B6BDB6803431A43FB6818331B010B
:104498000B441A607B681B6B7A68126B126902F016
:1044A8000F021A617B6819687B681A68FB68183301
:1044B8001B01134404331B6823F00F02FB681833F5
:1044C8001B010B4404331A607B6819687B681A68FF
:1044D800FB6818331B01134404331A687B681B6B91
:1044E8001B691A43FB6818331B010B4404331A6019
:1044F8007B6819687B681B6BDB7D1A067B681B6B06
:104508009B7D1B041A437B681B6B5B7D1B0213435B
:104518007A68126B127D1A43FB681B010B4403F582
:10452800C4731A607B6819687B681B6BDB7E1A068C
:104538007B681B6B9B7E1B041A437B681B6B5B7E33
:104548001B0213437A68126B127E1A43FB681B0125
:104558000B4403F5C6731A607B6819687B681A6890
:10456800FB6818331B0113441B6843F00102FB6806
:1045780018331B010B441A60FCF77CFDB86030E06F
:10458800CC5005083B68B3F1FF3F2AD03B68002BAD
:1045980007D0FCF76FFD0246BB68D21A3B689A4207
:1045A8001FD97B68032283F83C20FB68002B04D1C9
:1045B8007B681B6880229A600DE0FB68012B05D19F
:1045C8007B681B684FF400429A6004E07B681B68B4
:1045D8004FF400029A607B68002283F83D20032391
:1045E80053E0FB68002B0BD17B681B689A68294B4A
:1045F8001340284A934214BF01230023DBB219E079
:10460800FB68012B0BD17B681B689A68224B13400F
:10461800214A934214BF01230023DBB20AE07B68DE
:104628001B689A681D4B13401C4A934214BF012310
:104638000023DBB2002BA5D17B6893F83C30DBB2BA
:10464800522B08D0722B0BD0422B0ED17B68222222
:1046580083F83C200EE07B68322283F83C2009E096
:104668007B68622283F83C2004E07B68012283F89F
:104678003C2000BF7B68002283F83D20002304E033
:104688007B68042283F83C20012318461037BD4676
:1046980080BD00BF030000040003000800000310F1
:1046A80080B584B000AF78600423FB607B681B6B27
:1046B8009B68002B09D07B681B6B9B68042B04D07C
:1046C80040F2C12195484FF039F97B681B6BDB68D4
:1046D800002B09D07B681B6BDB68022B04D040F2EF
:1046E800C2218E484FF02AF97B681B6B1B69082B87
:1046F80004D940F2C32189484FF020F97B681B6830
:104708009B6803F08063002B0ED17B681B689B6855
:1047180003F00063002B07D17B681B689B6803F0DC
:104728008053002B00F023817B6893F83D30012BE8
:1047380001D1022320E17B68012283F83D207B68B8
:104748001B689B6803F08063002B02D00023FB608A
:104758000BE07B681B689B6803F00063002B02D0AA
:104768000123FB6001E00223FB607B6819687B681A
:104778001A68FB6818331B0113441B6803F0010215
:10478800FB6818331B010B441A607B681B6B9B6822
:10479800002B22D17B681B6B1B68B3F5006F04D319
:1047A80040F2DE215D484FF0C9F87B6819687B68E4
:1047B8001A68FB6818331B0113441A687B681B6B63
:1047C8001B6858057B681B6BDB6803431A43FB684F
:1047D80018331B010B441A6025E07B681B6B5B6870
:1047E800B3F1005F04D34FF439714C484FF0A6F889
:1047F8007B6819687B681A68FB6818331B011344C7
:104808001A687B681B6B5B68D8007B681B6B9B68AE
:1048180018437B681B6BDB6803431A43FB68183338
:104828001B010B441A607B681B6B7A68126B126958
:1048380002F00F021A617B6819687B681A68FB68C6
:1048480018331B01134404331B6823F00F02FB6861
:1048580018331B010B4404331A607B6819687B68A2
:104868001A68FB6818331B01134404331A687B6801
:104878001B6B1B691A43FB6818331B010B44043379
:104888001A607B6819687B681B6BDB7D1A067B687E
:104898001B6B9B7D1B041A437B681B6B5B7D1B0298
:1048A80013437A68126B127D1A43FB681B010B4491
:1048B80003F5C4731A607B6819687B681B6BDB7E21
:1048C8001A067B681B6B9B7E1B041A437B681B6B59
:1048D8005B7E1B0213437A68126B127E1A43FB68D5
:1048E8001B010B4403F5C6731A607B6893F83C30D0
:1048F800DBB2322B08D0622B0BD0222B10D17B6875
:10490800422283F83C2010E07B68522283F83C2046
:104918000BE07B68722283F83C2006E0CC50050847
:104928007B68122283F83C2000BF7B6800221A644F
:104938007B68002283F83D207B6819687B681A68C9
:10494800FB6818331B0113441B6843F00102FB6822
:1049580018331B010B441A607B681A687B681B6854
:10496800596948F601730B435361002304E07B68DF
:10497800042283F83C20012318461037BD4680BD29
:1049880080B586B000AFF8600B467A60FB720023F2
:104998003B6100237B61FB7A002B07D0FB7A012B5C
:1049A80004D040F2363171484EF0C8FFFB7A002B34
:1049B80019D1FB6893F83C30DBB2222B11D0FB688D
:1049C80093F83C30DBB2422B0BD0FB6893F83C30B9
:1049D800DBB2622B05D0FB6893F83C30DBB2722B5C
:1049E80001D10223A3E1FB7A012B19D1FB6893F8CB
:1049F8003C30DBB2322B11D0FB6893F83C30DBB291
:104A0800522B0BD0FB6893F83C30DBB2622B05D0FD
:104A1800FB6893F83C30DBB2722B01D1022386E1AC
:104A2800FB6893F83D30012B01D102237FE1FB683D
:104A3800012283F83D20FB7A002B1ED1FB6893F8F6
:104A48003C30DBB2322B08D0522B0BD0122B0ED1BC
:104A5800FB68422283F83C202DE0FB68622283F841
:104A68003C2028E0FB68722283F83C2023E0FB68A6
:104A7800222283F83C2000BF1DE0FB6893F83C30FD
:104A8800DBB2222B08D0422B0BD0122B0ED1FB68A5
:104A9800522283F83C200EE0FB68622283F83C2017
:104AA80009E0FB68722283F83C2004E0FB683222AC
:104AB80083F83C2000BFFCF7DDFA386118E07B681A
:104AC800B3F1FF3F14D07B68002B07D0FCF7D2FA74
:104AD80002463B69D21A7B689A4209D9FB680322CD
:104AE80083F83C20FB68002283F83D2003231EE165
:104AF800FB7A002B0AD1FB681B68DB6803F0030311
:104B0800002B0CBF01230023DBB209E0FB681B6804
:104B18001B6903F00303002B0CBF01230023DBB246
:104B2800002BCCD1FB7A002B03D1FB685B6B7B613C
:104B380002E0FB689B6B7B61FB681A68FB7A1B339E
:104B48001B0113441B6803F004027B699A607B69AC
:104B58009B68002B0CD1FB681A68FB7A1B331B017E
:104B680013441B685A0D7B691A600BE0CC5005088A
:104B7800FB681A68FB7A1B331B0113441B68DA08AD
:104B88007B695A60FB681A68FB7A1B331B01134464
:104B98001B6803F002027B69DA60FB681A68FB7A1B
:104BA8001B331B01134404331B6803F00F027B699A
:104BB8001A61FB681A68FB7A1B331B011344043320
:104BC8001B681B0ADAB27B69DA61FA7A7B691A62B6
:104BD800FB681A68FB7A1B01134403F5DC731B6836
:104BE800DAB27B691A75FB681A68FB7A1B011344F1
:104BF80003F5DC731B681B0ADAB27B695A75FB681C
:104C08001A68FB7A1B01134403F5DC731B681B0C41
:104C1800DAB27B699A75FB681A68FB7A1B01134440
:104C280003F5DC731B681B0EDAB27B69DA75FB6867
:104C38001A68FB7A1B01134403F5DE731B68DAB2AA
:104C48007B691A76FB681A68FB7A1B01134403F523
:104C5800DE731B681B0ADAB27B695A76FB681A682E
:104C6800FB7A1B01134403F5DE731B681B0CDAB2D5
:104C78007B699A76FB681A68FB7A1B01134403F573
:104C8800DE731B681B0EDAB27B69DA76FB7A002BBF
:104C980004D1FB681B682022DA6003E0FB681B680C
:104CA80020221A61FB7A002B1ED1FB6893F83C3056
:104CB800DBB2622B08D0722B0BD0422B0ED1FB68D3
:104CC800122283F83C202DE0FB68322283F83C2036
:104CD80028E0FB68522283F83C2023E0FB6801228D
:104CE80083F83C2000BF1DE0FB6893F83C30DBB242
:104CF800622B08D0722B0BD0522B0ED1FB681222DC
:104D080083F83C200EE0FB68222283F83C2009E06F
:104D1800FB68422283F83C2004E0FB68012283F808
:104D28003C2000BFFB68002283F83D200023184682
:104D38001837BD4680BD00BF80B582B000AF78602F
:104D48000B46FB70FB78002B07D0FB78012B04D0B7
:104D580040F2EF3156484EF0F1FDFB78002B19D1A7
:104D68007B6893F83C30DBB2222B11D07B6893F838
:104D78003C30DBB2422B0BD07B6893F83C30DBB283
:104D8800622B05D07B6893F83C30DBB2722B01D1E3
:104D9800022388E0FB78012B19D17B6893F83C301B
:104DA800DBB2322B11D07B6893F83C30DBB2522B4C
:104DB8000BD07B6893F83C30DBB2622B05D07B6864
:104DC80093F83C30DBB2722B01D102236BE07B6895
:104DD80093F83D30012B01D1022364E07B68012266
:104DE80083F83D20FB78002B1ED17B6893F83C307C
:104DF800DBB2322B08D0522B0BD0122B0ED17B6892
:104E0800422283F83C202DE07B68622283F83C2014
:104E180028E07B68722283F83C2023E07B6822220A
:104E280083F83C2000BF1DE07B6893F83C30DBB280
:104E3800222B08D0422B0BD0122B0ED17B6852228A
:104E480083F83C200EE07B68622283F83C2009E06E
:104E58007B68722283F83C2004E07B68322283F866
:104E68003C2000BF7B6800221A647B681A687B6854
:104E78001B68596948F601730B435361FB78002B93
:104E880008D17B681B687A681268526942F00A0286
:104E98005A6107E07B681B687A681268526942F0B9
:104EA80050025A61002318460837BD4680BD00BF2E
:104EB800CC50050880B584B000AF78600023FB6053
:104EC8007B6893F83D30012B01D1022343E07B68D6
:104ED800012283F83D207B68022283F83C207B680E
:104EE8001B687A681268126822F0030242F0020214
:104EF8001A607B681B685B6803F00303022B05D00C
:104F08007B68002283F83D20012324E0FCF7B2F8F7
:104F1800F86010E0FCF7AEF80246FB68D31A0A2BDB
:104F280009D97B68032283F83C207B68002283F838
:104F38003D2003230FE07B681B685B6803F00303D5
:104F4800022BE7D17B68012283F83C207B68002292
:104F580083F83D20002318461037BD4680BD00BFAA
:104F680080B584B000AF78600023FB607B6893F85D
:104F78003D30012B01D1022341E07B68012283F8F7
:104F88003D207B68022283F83C207B681B687A6896
:104F98001268126822F002021A60FCF76BF8F860D7
:104FA80010E0FCF767F80246FB68D31A0A2B09D908
:104FB8007B68032283F83C207B68002283F83D202D
:104FC80003231CE07B681B685B6803F00203002B6B
:104FD800E7D17B681B685B6803F00203002B05D0F0
:104FE8007B68002283F83D20012308E07B680122CA
:104FF80083F83C207B68002283F83D200023184674
:105008001037BD4680BD00BF80B586B000AF786060
:1050180000233B610023FB600023BB6000237B610E
:105028007B681B68DB6803F01003002B14BF0123A7
:105038000023DBB23B617B681B685B6903F00803F4
:10504800002B14BF01230023DBB2FB603B69002B5C
:105058000AD0FB68002B07D07B6943F400737B619F
:105068007B681B681022DA607B681B681B6903F089
:105078001003002B14BF01230023DBB23B617B68C4
:105088001B685B6903F04003002B14BF0123002356
:10509800DBB2FB603B69002B0AD0FB68002B07D012
:1050A8007B6943F480637B617B681B6810221A610B
:1050B8007B681B685B6903F00103002B6CD07B687D
:1050C8001B689A682B4B13402A4A93420CBF012352
:1050D8000023DBB23B617B681B689A68264B134050
:1050E800254A93420CBF01230023DBB2FB607B6897
:1050F8001B689A68214B1340204A93420CBF012336
:105108000023DBB2BB603B69002B05D1FB68002B99
:1051180002D1BB68002B3FD07B681B689B6803F0FB
:105128000203002B14BF01230023DBB23B617B6821
:105138001B689B6803F40073002B14BF0123002332
:10514800DBB2FB607B681B689B6803F40033002BB1
:1051580014BF01230023DBB2BB603B69002B05D1E0
:10516800FB68002B02D1BB68002B09D0786800F0DF
:10517800ABF909E003000004000300080000031075
:105188007B6943F400637B617B681A687B681B68F2
:105198009968964B0B4393607B681B68DB6803F048
:1051A80003033B617B681B685B6903F00203002B08
:1051B80014BF01230023DBB2FB603B69002B06D040
:1051C800FB68002B03D00021786800F0BDF97B68EC
:1051D8001B681B6903F003033B617B681B685B6901
:1051E80003F01003002B14BF01230023DBB2FB6084
:1051F8003B69002B06D0FB68002B03D0012178689F
:1052080000F0A2F97B681A6C7B691A437B681A6400
:105218007B681B689B6903F00103002B14BF012303
:105228000023DBB23B617B681B685B6903F4807316
:10523800002B14BF01230023DBB2FB607B681B68D3
:105248005B6903F40043002B14BF01230023DBB286
:10525800BB603B69002B0BD0FB68002B08D0BB68F8
:10526800002B05D07B681B6C43F001027B681A6435
:105278007B681B689B6903F00203002B14BF0123A2
:105288000023DBB23B617B681B685B6903F4007336
:10529800002B14BF01230023DBB2FB607B681B6873
:1052A8005B6903F40043002B14BF01230023DBB226
:1052B800BB603B69002B0BD0FB68002B08D0BB6898
:1052C800002B05D07B681B6C43F002027B681A64D4
:1052D8007B681B689B6903F00403002B14BF012340
:1052E8000023DBB23B617B681B685B6903F4806366
:1052F800002B14BF01230023DBB2FB607B681B6813
:105308005B6903F40043002B14BF01230023DBB2C5
:10531800BB603B69002B0BD0FB68002B08D0BB6837
:10532800002B05D07B681B6C43F004027B681A6471
:105338007B681B689B6903F07003002B0CBF01237B
:105348000023DBB23B617B681B685B6903F4006385
:10535800002B14BF01230023DBB2FB607B681B68B2
:105368005B6903F40043002B14BF01230023DBB265
:10537800BB603B69002B51D1FB68002B4ED0BB684A
:10538800002B4BD07B681B689B6903F070033B6163
:105398003B69302B1BD0302B04D8102B09D0202B85
:1053A8000ED033E0502B23D0602B28D0402B15D0C3
:1053B8002CE07B681B6C43F008027B681A6425E0CC
:1053C8007B681B6C43F010027B681A641EE07B68E4
:1053D8001B6C43F020027B681A6417E07B681B6C27
:1053E80043F040027B681A6410E000BF1905010011
:1053F8007B681B6C43F080027B681A6406E07B685C
:105408001B6C43F480727B681A6400BF7B681B685E
:105418007A681268926922F070029A617B681B6C44
:10542800002B12D07B681B6804225A607B6801221B
:1054380083F83C207B681A687B681B685969054BB0
:105448000B405361786800F01BF800BF1837BD4661
:1054580080BD00BFA470FFFF80B483B000AF786048
:1054680000BF0C37BD465DF8047B704780B483B03D
:1054780000AF786000BF0C37BD465DF8047B70470D
:1054880080B483B000AF786000BF0C37BD465DF8CC
:10549800047B704780B483B000AF78607B6893F872
:1054A8003C30DBB218460C37BD465DF8047B7047CC
:1054B80080B483B000AF78607B681B6C18460C37EB
:1054C800BD465DF8047B704780B582B000AF786058
:1054D8007B681B687A681268526922F001025A6177
:1054E8007B6893F83C30DBB2122B07D17B681B68D2
:1054F8007A681268526922F40F425A617B6893F8FD
:105508003C30DBB2522B08D0722B0BD0422B0ED181
:105518007B68222283F83C200EE07B68322283F8E5
:105528003C2009E07B68622283F83C2004E07B6829
:10553800012283F83C2000BF7868FFF78DFF002325
:1055480018460837BD4680BD80B584B000AF786086
:105558000B46FB700023BB600023FB60FB78002B2D
:1055680003D17B685B6BFB6002E07B689B6BFB6035
:105578007B681A68FB781B331B0113441B6803F014
:105588000402FB689A60FB689B68002B0AD17B6861
:105598001A68FB781B331B0113441B685A0DFB6800
:1055A8001A6009E07B681A68FB781B331B011344F7
:1055B8001B68DA08FB685A607B681A68FB781B333B
:1055C8001B0113441B6803F00202FB68DA607B6866
:1055D8001A68FB781B331B01134404331B6803F060
:1055E8000F02FB681A61FA78FB681A627B681A680E
:1055F800FB781B331B01134404331B681B0ADAB204
:10560800FB68DA617B681A68FB781B01134403F5B1
:10561800DC731B68DAB2FB681A757B681A68FB785A
:105628001B01134403F5DC731B681B0ADAB2FB6821
:105638005A757B681A68FB781B01134403F5DC7301
:105648001B681B0CDAB2FB689A757B681A68FB78D2
:105658001B01134403F5DC731B681B0EDAB2FB68ED
:10566800DA757B681A68FB781B01134403F5DE734F
:105678001B68DAB2FB681A767B681A68FB781B012C
:10568800134403F5DE731B681B0ADAB2FB685A760B
:105698007B681A68FB781B01134403F5DE731B68EB
:1056A8001B0CDAB2FB689A767B681A68FB781B01D8
:1056B800134403F5DE731B681B0EDAB2FB68DA7657
:1056C800FB78002B0CD17B681B682022DA607B6892
:1056D8001B687A681268526922F00A025A610BE064
:1056E8007B681B6820221A617B681B687A681268CD
:1056F800526922F050025A617B6893F83C30DBB261
:10570800BB60BB68222B02D0BB68322B07D17B68F9
:105718001B687A681268526922F40F425A61FB7852
:10572800002B1ED17B6893F83C30DBB2622B08D08B
:10573800722B0BD0422B0ED17B68122283F83C20AF
:105748002DE07B68322283F83C2028E07B685222D7
:1057580083F83C2023E07B68012283F83C2000BFCB
:105768001DE07B6893F83C30DBB2622B08D0722BCB
:105778000BD0522B0ED17B68122283F83C200EE00E
:105788007B68222283F83C2009E07B68422283F868
:105798003C2004E07B68012283F83C2000BF786845
:1057A800FFF764FE002318461037BD4680BD00BFD2
:1057B80080B582B000AF78607B68002B03D07B682F
:1057C8009B6A002B01D10123C2E07B681B68624AF7
:1057D800934203D09D2161484EF0B0F87B685B6826
:1057E800072B03D99E215D484EF0A8F87B689B687B
:1057F800002B07D07B689B68082B03D09F21574854
:105808004EF09CF87B68DB68002B07D07B68DB6870
:10581800102B03D0A02151484EF090F87B681B69EB
:10582800002B07D07B681B69202B03D0A1214B4894
:105838004EF084F87B685B69002B07D07B685B6956
:10584800402B03D0A22145484EF078F87B689B692D
:10585800002B07D07B689B69802B03D0A3213F488E
:105868004EF06CF87B68DB69002B08D07B68DB693D
:10587800B3F5807F03D0A42138484EF05FF87B68E9
:105888001B6A002B08D07B681B6AB3F1004F03D05A
:10589800A52132484EF052F87B689B8C1BB2002B36
:1058A80003DAA6212D484EF049F87B6893F8353085
:1058B800002B06D17B68002283F83420786800F03A
:1058C800FFF87B68242283F835207B681B687A6898
:1058D8001268126822F001021A607B681B687A68F5
:1058E80051687A68926811437A68D26811437A6875
:1058F800126911437A68526911437A6892691143AF
:105908007A68D26911437A68928C120411437A68D2
:10591800126A0A435A607B681A687B681B6859696F
:1059280041F6FF730B4353617B681B687A68126802
:10593800126842F001021A607B6800229A637B6851
:10594800202283F835207B68202283F83620002324
:1059580018460837BD4680BD006C0040F450050865
:1059680080B582B000AF78607B68002B01D101233D
:1059780038E07B681B681D4A934203D0E3211C482A
:105988004DF0DCFF7B68242283F83520786800F02E
:10599800A1F87B681B687A681268126822F0010215
:1059A8001A607B681A687B681B68196941F6FF737F
:1059B8000B4313617B681A687B681B6859690D4B38
:1059C8000B4053617B6800229A637B68002283F84E
:1059D80035207B68002283F836207B68002283F814
:1059E8003420002318460837BD4680BD006C0040AF
:1059F800F450050800E0FFFF80B582B000AF786082
:105A08000B467B80B7F90230002B04DA4FF48A7119
:105A180029484DF093FF7B6893F83530202B45D10A
:105A28007B6893F83630202B40D17B6893F834306C
:105A3800012B01D102233AE07B68012283F834204C
:105A48007B68242283F835207B681B687A68126893
:105A5800126822F001021A607B88002B09D07B684B
:105A68001B687A68126851687A8812040A435A6077
:105A780007E07B681A687B681B6859680F4B0B4006
:105A880053607B68202283F835207B6800229A6364
:105A98007B68002283F834207B681B687A68126868
:105AA800126842F001021A60002300E0022318463F
:105AB8000837BD4680BD00BFF4500508FFFF0080D1
:105AC80080B483B000AF786000BF0C37BD465DF886
